{
  "contractName": "DonateCrypto",
  "abi": [
    {
      "inputs": [],
      "stateMutability": "nonpayable",
      "type": "constructor"
    },
    {
      "inputs": [
        {
          "internalType": "uint256",
          "name": "",
          "type": "uint256"
        }
      ],
      "name": "campaigns",
      "outputs": [
        {
          "internalType": "address",
          "name": "author",
          "type": "address"
        },
        {
          "internalType": "string",
          "name": "title",
          "type": "string"
        },
        {
          "internalType": "string",
          "name": "description",
          "type": "string"
        },
        {
          "internalType": "uint256",
          "name": "balance",
          "type": "uint256"
        },
        {
          "internalType": "uint256",
          "name": "goal",
          "type": "uint256"
        },
        {
          "internalType": "bool",
          "name": "active",
          "type": "bool"
        }
      ],
      "stateMutability": "view",
      "type": "function"
    },
    {
      "inputs": [],
      "name": "fee",
      "outputs": [
        {
          "internalType": "uint256",
          "name": "",
          "type": "uint256"
        }
      ],
      "stateMutability": "view",
      "type": "function"
    },
    {
      "inputs": [],
      "name": "nextId",
      "outputs": [
        {
          "internalType": "uint256",
          "name": "",
          "type": "uint256"
        }
      ],
      "stateMutability": "view",
      "type": "function"
    },
    {
      "inputs": [
        {
          "internalType": "uint256",
          "name": "id",
          "type": "uint256"
        }
      ],
      "name": "getDonors",
      "outputs": [
        {
          "internalType": "address[]",
          "name": "",
          "type": "address[]"
        }
      ],
      "stateMutability": "view",
      "type": "function"
    },
    {
      "inputs": [
        {
          "internalType": "string",
          "name": "title",
          "type": "string"
        },
        {
          "internalType": "string",
          "name": "description",
          "type": "string"
        },
        {
          "internalType": "string[]",
          "name": "videosUrl",
          "type": "string[]"
        },
        {
          "internalType": "string[]",
          "name": "imagesUrl",
          "type": "string[]"
        },
        {
          "internalType": "uint256",
          "name": "goal",
          "type": "uint256"
        }
      ],
      "name": "addCampaign",
      "outputs": [],
      "stateMutability": "nonpayable",
      "type": "function"
    },
    {
      "inputs": [
        {
          "internalType": "uint256",
          "name": "id",
          "type": "uint256"
        }
      ],
      "name": "donate",
      "outputs": [],
      "stateMutability": "payable",
      "type": "function"
    },
    {
      "inputs": [
        {
          "internalType": "uint256",
          "name": "id",
          "type": "uint256"
        }
      ],
      "name": "withdraw",
      "outputs": [],
      "stateMutability": "nonpayable",
      "type": "function"
    },
    {
      "inputs": [],
      "name": "withdrawOwner",
      "outputs": [],
      "stateMutability": "nonpayable",
      "type": "function"
    },
    {
      "inputs": [
        {
          "internalType": "uint256",
          "name": "newFee",
          "type": "uint256"
        }
      ],
      "name": "changeFee",
      "outputs": [],
      "stateMutability": "nonpayable",
      "type": "function"
    }
  ],
  "bytecode": "0x60a06040526064600055600060015534801561001a57600080fd5b503360805260805161101a610048600039600081816106de0152818161072b015261077e015261101a6000f3fe6080604052600436106100865760003560e01c806361b8ce8c1161005957806361b8ce8c146101355780636a1db1bf14610159578063ddca3f4314610179578063e8cc00ad1461018f578063f14faf6f146101a457600080fd5b8063141961bc1461008b57806329516511146100c65780632e1a7d4d146100f357806340908e3f14610115575b600080fd5b34801561009757600080fd5b506100ab6100a6366004610a90565b6101b7565b6040516100bd96959493929190610aef565b60405180910390f35b3480156100d257600080fd5b506100e66100e1366004610a90565b61030b565b6040516100bd9190610b46565b3480156100ff57600080fd5b5061011361010e366004610a90565b61037a565b005b34801561012157600080fd5b50610113610130366004610c21565b6104df565b34801561014157600080fd5b5061014b60015481565b6040519081526020016100bd565b34801561016557600080fd5b50610113610174366004610a90565b6106dc565b34801561018557600080fd5b5061014b60005481565b34801561019b57600080fd5b50610113610729565b6101136101b2366004610a90565b6107c9565b600260205260009081526040902080546001820180546001600160a01b0390921692916101e390610ced565b80601f016020809104026020016040519081016040528092919081815260200182805461020f90610ced565b801561025c5780601f106102315761010080835404028352916020019161025c565b820191906000526020600020905b81548152906001019060200180831161023f57829003601f168201915b50505050509080600201805461027190610ced565b80601f016020809104026020016040519081016040528092919081815260200182805461029d90610ced565b80156102ea5780601f106102bf576101008083540402835291602001916102ea565b820191906000526020600020905b8154815290600101906020018083116102cd57829003601f168201915b50505050600583015460068401546007909401549293909290915060ff1686565b60008181526002602090815260409182902060080180548351818402810184019094528084526060939283018282801561036e57602002820191906000526020600020905b81546001600160a01b03168152600190910190602001808311610350575b50505050509050919050565b6000818152600260205260409020600781015460ff1615156001146103e65760405162461bcd60e51b815260206004820152601760248201527f546869732063616d706169676e20697320636c6f73656400000000000000000060448201526064015b60405180910390fd5b80546001600160a01b0316331461040f5760405162461bcd60e51b81526004016103dd90610d27565b6000548160050154116104775760405162461bcd60e51b815260206004820152602a60248201527f546869732063616d706169676e20646f6573206e6f74206861766520656e6f7560448201526967682062616c616e636560b01b60648201526084016103dd565b805460005460058301546001600160a01b03909216916108fc9161049a91610d74565b6040518115909202916000818181858888f193505050501580156104c2573d6000803e3d6000fd5b50506000908152600260205260409020600701805460ff19169055565b61053960405180610120016040528060006001600160a01b03168152602001606081526020016060815260200160608152602001606081526020016000815260200160008152602001600015158152602001606081525090565b89898080601f01602080910402602001604051908101604052809392919081815260200183838082843760009201919091525050505060208083019190915260408051601f8a0183900483028101830190915288815290899089908190840183828082843760009201919091525050505060408201526105b98587610dd4565b60608201526105c88385610dd4565b608082015260c08101829052600160e0820181905233825280546000908152600260209081526040909120835181546001600160a01b0319166001600160a01b039091161781559083015183928201906106229082610ef8565b50604082015160028201906106379082610ef8565b506060820151805161065391600384019160209091019061096d565b506080820151805161066f91600484019160209091019061096d565b5060a0820151600582015560c0820151600682015560e082015160078201805460ff191691151591909117905561010082015180516106b89160088401916020909101906109c3565b505060018054915060006106cb83610fb8565b919050555050505050505050505050565b7f00000000000000000000000000000000000000000000000000000000000000006001600160a01b031633146107245760405162461bcd60e51b81526004016103dd90610d27565b600055565b7f00000000000000000000000000000000000000000000000000000000000000006001600160a01b031633146107715760405162461bcd60e51b81526004016103dd90610d27565b6040516001600160a01b037f000000000000000000000000000000000000000000000000000000000000000016904780156108fc02916000818181858888f193505050501580156107c6573d6000803e3d6000fd5b50565b600034116108245760405162461bcd60e51b815260206004820152602260248201527f596f75206d7573742073656e64206120646f6e6174696f6e2076616c7565203e604482015261020360f41b60648201526084016103dd565b60008181526002602052604090206007015460ff16151560011461088a5760405162461bcd60e51b815260206004820152601e60248201527f43616e6e6f7420646f6e61746520746f20746869732063616d706169676e000060448201526064016103dd565b6000818152600260209081526040822060088101805460018101825590845291832090910180546001600160a01b0319163317905582825260050180543492906108d5908490610fd1565b909155505060008181526002602052604090206006810154600590910154106107c6576000818152600260205260408120805491546005909101546001600160a01b03909216916108fc9161092991610d74565b6040518115909202916000818181858888f19350505050158015610951573d6000803e3d6000fd5b506000908152600260205260409020600701805460ff19169055565b8280548282559060005260206000209081019282156109b3579160200282015b828111156109b357825182906109a39082610ef8565b509160200191906001019061098d565b506109bf929150610a24565b5090565b828054828255906000526020600020908101928215610a18579160200282015b82811115610a1857825182546001600160a01b0319166001600160a01b039091161782556020909201916001909101906109e3565b506109bf929150610a41565b808211156109bf576000610a388282610a56565b50600101610a24565b5b808211156109bf5760008155600101610a42565b508054610a6290610ced565b6000825580601f10610a72575050565b601f0160209004906000526020600020908101906107c69190610a41565b600060208284031215610aa257600080fd5b5035919050565b6000815180845260005b81811015610acf57602081850181015186830182015201610ab3565b506000602082860101526020601f19601f83011685010191505092915050565b6001600160a01b038716815260c060208201819052600090610b1390830188610aa9565b8281036040840152610b258188610aa9565b606084019690965250506080810192909252151560a0909101529392505050565b6020808252825182820181905260009190848201906040850190845b81811015610b875783516001600160a01b031683529284019291840191600101610b62565b50909695505050505050565b60008083601f840112610ba557600080fd5b50813567ffffffffffffffff811115610bbd57600080fd5b602083019150836020828501011115610bd557600080fd5b9250929050565b60008083601f840112610bee57600080fd5b50813567ffffffffffffffff811115610c0657600080fd5b6020830191508360208260051b8501011115610bd557600080fd5b600080600080600080600080600060a08a8c031215610c3f57600080fd5b893567ffffffffffffffff80821115610c5757600080fd5b610c638d838e01610b93565b909b50995060208c0135915080821115610c7c57600080fd5b610c888d838e01610b93565b909950975060408c0135915080821115610ca157600080fd5b610cad8d838e01610bdc565b909750955060608c0135915080821115610cc657600080fd5b50610cd38c828d01610bdc565b9a9d999c50979a9699959894979660800135949350505050565b600181811c90821680610d0157607f821691505b602082108103610d2157634e487b7160e01b600052602260045260246000fd5b50919050565b6020808252601a908201527f596f7520646f206e6f742068617665207065726d697373696f6e000000000000604082015260600190565b634e487b7160e01b600052601160045260246000fd5b81810381811115610d8757610d87610d5e565b92915050565b634e487b7160e01b600052604160045260246000fd5b604051601f8201601f1916810167ffffffffffffffff81118282101715610dcc57610dcc610d8d565b604052919050565b600067ffffffffffffffff80841115610def57610def610d8d565b8360051b6020610e00818301610da3565b868152918501918181019036841115610e1857600080fd5b865b84811015610e9d57803586811115610e325760008081fd5b8801601f3681830112610e455760008081fd5b813588811115610e5757610e57610d8d565b610e68818301601f19168801610da3565b91508082523687828501011115610e7f5760008081fd5b80878401888401376000908201870152845250918301918301610e1a565b50979650505050505050565b601f821115610ef357600081815260208120601f850160051c81016020861015610ed05750805b601f850160051c820191505b81811015610eef57828155600101610edc565b5050505b505050565b815167ffffffffffffffff811115610f1257610f12610d8d565b610f2681610f208454610ced565b84610ea9565b602080601f831160018114610f5b5760008415610f435750858301515b600019600386901b1c1916600185901b178555610eef565b600085815260208120601f198616915b82811015610f8a57888601518255948401946001909101908401610f6b565b5085821015610fa85787850151600019600388901b60f8161c191681555b5050505050600190811b01905550565b600060018201610fca57610fca610d5e565b5060010190565b80820180821115610d8757610d87610d5e56fea264697066735822122018d0216b780b8f20cb7037c6ef1f1fd83ef1d961adb9d4a0faaf8f340ca6791c64736f6c63430008110033",
  "immutableReferences": {
    "3": [
      {
        "length": 32,
        "start": 1758
      },
      {
        "length": 32,
        "start": 1835
      },
      {
        "length": 32,
        "start": 1918
      }
    ]
  },
  "source": "//SPDX-License-Identifier: MIT\r\npragma solidity ^0.8.17;\r\n\r\n\r\ncontract DonateCrypto{\r\n\r\n    address payable private immutable owner;\r\n    uint256 public fee = 100;\r\n    uint256 public nextId = 0;\r\n    mapping(uint256 => Campaign) public campaigns;\r\n\r\n    struct Campaign{\r\n        address author;\r\n        string title;\r\n        string description;\r\n        string[] videosUrl;\r\n        string[] imagesUrl;\r\n        uint256 balance;\r\n        uint256 goal;\r\n        bool active;\r\n        address[] donors;\r\n    }\r\n\r\n    function getDonors(uint256 id) external view returns(address[] memory){\r\n        return campaigns[id].donors;\r\n    }\r\n\r\n\r\n    constructor(){\r\n        owner = payable(msg.sender);\r\n    }\r\n\r\n\r\n    function addCampaign(string calldata title, string calldata description, string[] calldata videosUrl,string[] calldata imagesUrl, uint256 goal) external {\r\n        Campaign memory newCampaign;\r\n\r\n        newCampaign.title = title;\r\n        newCampaign.description = description;\r\n        newCampaign.videosUrl = videosUrl;\r\n        newCampaign.imagesUrl = imagesUrl;\r\n        newCampaign.goal = goal;\r\n        newCampaign.active = true;\r\n        newCampaign.author = msg.sender;\r\n\r\n        campaigns[nextId] = newCampaign;\r\n        nextId++;\r\n\r\n    }\r\n\r\n\r\n    function donate(uint256 id) external payable{\r\n        require(msg.value > 0, \"You must send a donation value > 0\");\r\n        require(campaigns[id].active == true, \"Cannot donate to this campaign\");\r\n        \r\n        campaigns[id].donors.push(msg.sender);\r\n        campaigns[id].balance += msg.value;\r\n\r\n        if (campaigns[id].balance >= campaigns[id].goal){\r\n\r\n            payable(campaigns[id].author).transfer(campaigns[id].balance-fee);\r\n\r\n            campaigns[id].active = false;\r\n        }\r\n    }\r\n\r\n\r\n    function withdraw(uint256 id) external{\r\n\r\n        Campaign storage campaign = campaigns[id];\r\n\r\n        require(campaign.active == true, \"This campaign is closed\");\r\n        require(campaign.author == msg.sender, \"You do not have permission\");\r\n        require(campaign.balance > fee, \"This campaign does not have enough balance\");\r\n\r\n        payable(campaign.author).transfer(campaign.balance-fee);\r\n\r\n        campaigns[id].active = false;\r\n\r\n    }\r\n\r\n\r\n    function withdrawOwner() external restricted{\r\n        owner.transfer(address(this).balance);\r\n    }\r\n\r\n\r\n    function changeFee(uint256 newFee) external restricted{\r\n        fee = newFee;\r\n    }\r\n\r\n\r\n    modifier restricted(){\r\n        require(owner == msg.sender, \"You do not have permission\");\r\n        _;\r\n    }\r\n\r\n}\r\n",
  "sourcePath": "C:\\Users\\anton\\OneDrive\\Documentos\\DonateCrypto\\contracts\\DonateCrypto.sol",
  "compiler": {
    "name": "solc",
    "version": "0.8.17+commit.8df45f5f.Emscripten.clang"
  },
  "schemaVersion": "3.4.16",
  "updatedAt": "2023-10-30T11:36:19.022Z",
  "devdoc": {
    "kind": "dev",
    "methods": {},
    "version": 1
  },
  "userdoc": {
    "kind": "user",
    "methods": {},
    "version": 1
  }
}