{
  "contractName": "DonateCrypto",
  "abi": [
    {
      "inputs": [],
      "stateMutability": "nonpayable",
      "type": "constructor"
    },
    {
      "inputs": [
        {
          "internalType": "uint256",
          "name": "",
          "type": "uint256"
        }
      ],
      "name": "campaigns",
      "outputs": [
        {
          "internalType": "address",
          "name": "author",
          "type": "address"
        },
        {
          "internalType": "string",
          "name": "title",
          "type": "string"
        },
        {
          "internalType": "string",
          "name": "description",
          "type": "string"
        },
        {
          "internalType": "uint256",
          "name": "balance",
          "type": "uint256"
        },
        {
          "internalType": "uint256",
          "name": "goal",
          "type": "uint256"
        },
        {
          "internalType": "bool",
          "name": "active",
          "type": "bool"
        }
      ],
      "stateMutability": "view",
      "type": "function",
      "constant": true
    },
    {
      "inputs": [],
      "name": "fee",
      "outputs": [
        {
          "internalType": "uint256",
          "name": "",
          "type": "uint256"
        }
      ],
      "stateMutability": "view",
      "type": "function",
      "constant": true
    },
    {
      "inputs": [],
      "name": "nextId",
      "outputs": [
        {
          "internalType": "uint256",
          "name": "",
          "type": "uint256"
        }
      ],
      "stateMutability": "view",
      "type": "function",
      "constant": true
    },
    {
      "inputs": [
        {
          "internalType": "string",
          "name": "title",
          "type": "string"
        },
        {
          "internalType": "string",
          "name": "description",
          "type": "string"
        },
        {
          "internalType": "string[]",
          "name": "videosUrl",
          "type": "string[]"
        },
        {
          "internalType": "string[]",
          "name": "imagesUrl",
          "type": "string[]"
        },
        {
          "internalType": "uint256",
          "name": "goal",
          "type": "uint256"
        }
      ],
      "name": "addCampaign",
      "outputs": [],
      "stateMutability": "nonpayable",
      "type": "function"
    },
    {
      "inputs": [
        {
          "internalType": "uint256",
          "name": "id",
          "type": "uint256"
        }
      ],
      "name": "getDonors",
      "outputs": [
        {
          "internalType": "address[]",
          "name": "",
          "type": "address[]"
        }
      ],
      "stateMutability": "view",
      "type": "function",
      "constant": true
    },
    {
      "inputs": [
        {
          "internalType": "uint256",
          "name": "id",
          "type": "uint256"
        }
      ],
      "name": "donate",
      "outputs": [],
      "stateMutability": "payable",
      "type": "function",
      "payable": true
    },
    {
      "inputs": [
        {
          "internalType": "uint256",
          "name": "id",
          "type": "uint256"
        }
      ],
      "name": "withdraw",
      "outputs": [],
      "stateMutability": "nonpayable",
      "type": "function"
    },
    {
      "inputs": [],
      "name": "withdrawOwner",
      "outputs": [],
      "stateMutability": "nonpayable",
      "type": "function"
    },
    {
      "inputs": [
        {
          "internalType": "uint256",
          "name": "newFee",
          "type": "uint256"
        }
      ],
      "name": "changeFee",
      "outputs": [],
      "stateMutability": "nonpayable",
      "type": "function"
    }
  ],
  "bytecode": "0x60a06040526064600055600060015534801561001a57600080fd5b5033608052608051610fc7610048600039600081816106ce0152818161074b01526107ce0152610fc76000f3fe6080604052600436106100865760003560e01c806361b8ce8c1161005957806361b8ce8c146101355780636a1db1bf14610159578063ddca3f4314610179578063e8cc00ad1461018f578063f14faf6f146101a457600080fd5b8063141961bc1461008b57806329516511146100c65780632e1a7d4d146100f357806340908e3f14610115575b600080fd5b34801561009757600080fd5b506100ab6100a6366004610a74565b6101b7565b6040516100bd96959493929190610ad3565b60405180910390f35b3480156100d257600080fd5b506100e66100e1366004610a74565b61030b565b6040516100bd9190610b2a565b3480156100ff57600080fd5b5061011361010e366004610a74565b61037a565b005b34801561012157600080fd5b50610113610130366004610c05565b6104cf565b34801561014157600080fd5b5061014b60015481565b6040519081526020016100bd565b34801561016557600080fd5b50610113610174366004610a74565b6106cc565b34801561018557600080fd5b5061014b60005481565b34801561019b57600080fd5b50610113610749565b6101136101b2366004610a74565b610819565b600260205260009081526040902080546001820180546001600160a01b0390921692916101e390610cd1565b80601f016020809104026020016040519081016040528092919081815260200182805461020f90610cd1565b801561025c5780601f106102315761010080835404028352916020019161025c565b820191906000526020600020905b81548152906001019060200180831161023f57829003601f168201915b50505050509080600201805461027190610cd1565b80601f016020809104026020016040519081016040528092919081815260200182805461029d90610cd1565b80156102ea5780601f106102bf576101008083540402835291602001916102ea565b820191906000526020600020905b8154815290600101906020018083116102cd57829003601f168201915b50505050600583015460068401546007909401549293909290915060ff1686565b60008181526002602090815260409182902060080180548351818402810184019094528084526060939283018282801561036e57602002820191906000526020600020905b81546001600160a01b03168152600190910190602001808311610350575b50505050509050919050565b60008181526002602052604090206007015460ff1615156001146103e55760405162461bcd60e51b815260206004820152601760248201527f546869732063616d706169676e20697320636c6f73656400000000000000000060448201526064015b60405180910390fd5b6000805482825260026020526040909120600501541161045a5760405162461bcd60e51b815260206004820152602a60248201527f546869732063616d706169676e20646f6573206e6f74206861766520656e6f7560448201526967682062616c616e636560b01b60648201526084016103dc565b6000818152600260205260408120805491546005909101546001600160a01b03909216916108fc9161048b91610d21565b6040518115909202916000818181858888f193505050501580156104b3573d6000803e3d6000fd5b506000908152600260205260409020600701805460ff19169055565b61052960405180610120016040528060006001600160a01b03168152602001606081526020016060815260200160608152602001606081526020016000815260200160008152602001600015158152602001606081525090565b89898080601f01602080910402602001604051908101604052809392919081815260200183838082843760009201919091525050505060208083019190915260408051601f8a0183900483028101830190915288815290899089908190840183828082843760009201919091525050505060408201526105a98587610d81565b60608201526105b88385610d81565b608082015260c08101829052600160e0820181905233825280546000908152600260209081526040909120835181546001600160a01b0319166001600160a01b039091161781559083015183928201906106129082610ea5565b50604082015160028201906106279082610ea5565b5060608201518051610643916003840191602090910190610951565b506080820151805161065f916004840191602090910190610951565b5060a0820151600582015560c0820151600682015560e082015160078201805460ff191691151591909117905561010082015180516106a89160088401916020909101906109a7565b505060018054915060006106bb83610f65565b919050555050505050505050505050565b7f00000000000000000000000000000000000000000000000000000000000000006001600160a01b031633146107445760405162461bcd60e51b815260206004820152601a60248201527f596f7520646f206e6f742068617665207065726d697373696f6e00000000000060448201526064016103dc565b600055565b7f00000000000000000000000000000000000000000000000000000000000000006001600160a01b031633146107c15760405162461bcd60e51b815260206004820152601a60248201527f596f7520646f206e6f742068617665207065726d697373696f6e00000000000060448201526064016103dc565b6040516001600160a01b037f000000000000000000000000000000000000000000000000000000000000000016904780156108fc02916000818181858888f19350505050158015610816573d6000803e3d6000fd5b50565b600034116108745760405162461bcd60e51b815260206004820152602260248201527f596f75206d7573742073656e64206120646f6e6174696f6e2076616c7565203e604482015261020360f41b60648201526084016103dc565b60008181526002602052604090206007015460ff1615156001146108da5760405162461bcd60e51b815260206004820152601e60248201527f43616e6e6f7420646f6e61746520746f20746869732063616d706169676e000060448201526064016103dc565b6000818152600260209081526040822060088101805460018101825590845291832090910180546001600160a01b031916331790558282526005018054349290610925908490610f7e565b90915550506000818152600260205260409020600681015460059091015410610816576108168161037a565b828054828255906000526020600020908101928215610997579160200282015b8281111561099757825182906109879082610ea5565b5091602001919060010190610971565b506109a3929150610a08565b5090565b8280548282559060005260206000209081019282156109fc579160200282015b828111156109fc57825182546001600160a01b0319166001600160a01b039091161782556020909201916001909101906109c7565b506109a3929150610a25565b808211156109a3576000610a1c8282610a3a565b50600101610a08565b5b808211156109a35760008155600101610a26565b508054610a4690610cd1565b6000825580601f10610a56575050565b601f0160209004906000526020600020908101906108169190610a25565b600060208284031215610a8657600080fd5b5035919050565b6000815180845260005b81811015610ab357602081850181015186830182015201610a97565b506000602082860101526020601f19601f83011685010191505092915050565b6001600160a01b038716815260c060208201819052600090610af790830188610a8d565b8281036040840152610b098188610a8d565b606084019690965250506080810192909252151560a0909101529392505050565b6020808252825182820181905260009190848201906040850190845b81811015610b6b5783516001600160a01b031683529284019291840191600101610b46565b50909695505050505050565b60008083601f840112610b8957600080fd5b50813567ffffffffffffffff811115610ba157600080fd5b602083019150836020828501011115610bb957600080fd5b9250929050565b60008083601f840112610bd257600080fd5b50813567ffffffffffffffff811115610bea57600080fd5b6020830191508360208260051b8501011115610bb957600080fd5b600080600080600080600080600060a08a8c031215610c2357600080fd5b893567ffffffffffffffff80821115610c3b57600080fd5b610c478d838e01610b77565b909b50995060208c0135915080821115610c6057600080fd5b610c6c8d838e01610b77565b909950975060408c0135915080821115610c8557600080fd5b610c918d838e01610bc0565b909750955060608c0135915080821115610caa57600080fd5b50610cb78c828d01610bc0565b9a9d999c50979a9699959894979660800135949350505050565b600181811c90821680610ce557607f821691505b602082108103610d0557634e487b7160e01b600052602260045260246000fd5b50919050565b634e487b7160e01b600052601160045260246000fd5b81810381811115610d3457610d34610d0b565b92915050565b634e487b7160e01b600052604160045260246000fd5b604051601f8201601f1916810167ffffffffffffffff81118282101715610d7957610d79610d3a565b604052919050565b600067ffffffffffffffff80841115610d9c57610d9c610d3a565b8360051b6020610dad818301610d50565b868152918501918181019036841115610dc557600080fd5b865b84811015610e4a57803586811115610ddf5760008081fd5b8801601f3681830112610df25760008081fd5b813588811115610e0457610e04610d3a565b610e15818301601f19168801610d50565b91508082523687828501011115610e2c5760008081fd5b80878401888401376000908201870152845250918301918301610dc7565b50979650505050505050565b601f821115610ea057600081815260208120601f850160051c81016020861015610e7d5750805b601f850160051c820191505b81811015610e9c57828155600101610e89565b5050505b505050565b815167ffffffffffffffff811115610ebf57610ebf610d3a565b610ed381610ecd8454610cd1565b84610e56565b602080601f831160018114610f085760008415610ef05750858301515b600019600386901b1c1916600185901b178555610e9c565b600085815260208120601f198616915b82811015610f3757888601518255948401946001909101908401610f18565b5085821015610f555787850151600019600388901b60f8161c191681555b5050505050600190811b01905550565b600060018201610f7757610f77610d0b565b5060010190565b80820180821115610d3457610d34610d0b56fea2646970667358221220a68a0f994b58206dfaedafb5b0e140424d373cf86b95e231e0a3dd25632af57164736f6c63430008110033",
  "immutableReferences": {
    "3": [
      {
        "length": 32,
        "start": 1742
      },
      {
        "length": 32,
        "start": 1867
      },
      {
        "length": 32,
        "start": 1998
      }
    ]
  },
  "source": "//SPDX-License-Identifier: MIT\r\npragma solidity ^0.8.17;\r\n\r\n\r\ncontract DonateCrypto{\r\n\r\n    address payable private immutable owner;\r\n    uint256 public fee = 100;\r\n    uint256 public nextId = 0;\r\n    mapping(uint256 => Campaign) public campaigns;\r\n\r\n    struct Campaign{\r\n        address author;\r\n        string title;\r\n        string description;\r\n        string[] videosUrl;\r\n        string[] imagesUrl;\r\n        uint256 balance;\r\n        uint256 goal;\r\n        bool active;\r\n        address[] donors;\r\n    }\r\n\r\n\r\n    constructor(){\r\n        owner = payable(msg.sender);\r\n    }\r\n\r\n\r\n    function addCampaign(string calldata title, string calldata description, string[] calldata videosUrl,string[] calldata imagesUrl, uint256 goal) external {\r\n        \r\n        Campaign memory newCampaign;\r\n\r\n        newCampaign.title = title;\r\n        newCampaign.description = description;\r\n        newCampaign.videosUrl = videosUrl;\r\n        newCampaign.imagesUrl = imagesUrl;\r\n        newCampaign.goal = goal;\r\n        newCampaign.active = true;\r\n        newCampaign.author = msg.sender;\r\n        \r\n        campaigns[nextId] = newCampaign;\r\n        nextId++;\r\n\r\n\r\n    }\r\n\r\n\r\n    function getDonors(uint256 id) external view returns(address[] memory){\r\n        return campaigns[id].donors;\r\n    }\r\n\r\n\r\n    function donate(uint256 id) external payable{\r\n        require(msg.value > 0, \"You must send a donation value > 0\");\r\n        require(campaigns[id].active == true, \"Cannot donate to this campaign\");\r\n        \r\n        campaigns[id].donors.push(msg.sender);\r\n        campaigns[id].balance += msg.value;\r\n\r\n        if (campaigns[id].balance >= campaigns[id].goal){\r\n            withdraw(id);\r\n        }\r\n    }\r\n\r\n\r\n    function withdraw(uint256 id) public{\r\n\r\n        require(campaigns[id].active == true, \"This campaign is closed\");\r\n        require(campaigns[id].balance > fee, \"This campaign does not have enough balance\");\r\n\r\n        payable(campaigns[id].author).transfer(campaigns[id].balance-fee);\r\n\r\n        campaigns[id].active = false;\r\n\r\n    }\r\n\r\n\r\n    function withdrawOwner() external restricted{\r\n        owner.transfer(address(this).balance);\r\n    }\r\n\r\n\r\n    function changeFee(uint256 newFee) external restricted{\r\n        fee = newFee;\r\n    }\r\n\r\n\r\n    modifier restricted(){\r\n        require(owner == msg.sender, \"You do not have permission\");\r\n        _;\r\n    }\r\n\r\n}\r\n",
  "sourcePath": "C:\\Users\\anton\\OneDrive\\Documentos\\DonateCrypto\\blockchain\\contracts\\DonateCrypto.sol",
  "compiler": {
    "name": "solc",
    "version": "0.8.17+commit.8df45f5f.Emscripten.clang"
  },
  "schemaVersion": "3.4.16",
  "updatedAt": "2023-10-31T11:59:09.191Z",
  "networkType": "ethereum",
  "devdoc": {
    "kind": "dev",
    "methods": {},
    "version": 1
  },
  "userdoc": {
    "kind": "user",
    "methods": {},
    "version": 1
  }
}